{
  "contractName": "DStorage",
  "abi": [
    {
      "inputs": [],
      "payable": false,
      "stateMutability": "nonpayable",
      "type": "constructor"
    },
    {
      "anonymous": false,
      "inputs": [
        {
          "indexed": false,
          "internalType": "uint256",
          "name": "fileId",
          "type": "uint256"
        },
        {
          "indexed": false,
          "internalType": "string",
          "name": "fileHash",
          "type": "string"
        },
        {
          "indexed": false,
          "internalType": "string",
          "name": "fileType",
          "type": "string"
        },
        {
          "indexed": false,
          "internalType": "string",
          "name": "fileName",
          "type": "string"
        },
        {
          "indexed": false,
          "internalType": "string",
          "name": "fileDescription",
          "type": "string"
        },
        {
          "indexed": false,
          "internalType": "uint256",
          "name": "uploadTime",
          "type": "uint256"
        },
        {
          "indexed": false,
          "internalType": "uint256",
          "name": "funds",
          "type": "uint256"
        },
        {
          "indexed": false,
          "internalType": "uint256",
          "name": "views",
          "type": "uint256"
        },
        {
          "indexed": false,
          "internalType": "uint256",
          "name": "viewPrice",
          "type": "uint256"
        },
        {
          "indexed": false,
          "internalType": "address payable",
          "name": "uploader",
          "type": "address"
        },
        {
          "indexed": false,
          "internalType": "address payable",
          "name": "owner",
          "type": "address"
        }
      ],
      "name": "FileUploaded",
      "type": "event"
    },
    {
      "anonymous": false,
      "inputs": [
        {
          "indexed": false,
          "internalType": "uint256",
          "name": "fileId",
          "type": "uint256"
        },
        {
          "indexed": false,
          "internalType": "string",
          "name": "fileHash",
          "type": "string"
        },
        {
          "indexed": false,
          "internalType": "string",
          "name": "fileType",
          "type": "string"
        },
        {
          "indexed": false,
          "internalType": "string",
          "name": "fileName",
          "type": "string"
        },
        {
          "indexed": false,
          "internalType": "string",
          "name": "fileDescription",
          "type": "string"
        },
        {
          "indexed": false,
          "internalType": "uint256",
          "name": "uploadTime",
          "type": "uint256"
        },
        {
          "indexed": false,
          "internalType": "uint256",
          "name": "funds",
          "type": "uint256"
        },
        {
          "indexed": false,
          "internalType": "uint256",
          "name": "views",
          "type": "uint256"
        },
        {
          "indexed": false,
          "internalType": "uint256",
          "name": "viewPrice",
          "type": "uint256"
        },
        {
          "indexed": false,
          "internalType": "address payable",
          "name": "uploader",
          "type": "address"
        },
        {
          "indexed": false,
          "internalType": "address payable",
          "name": "owner",
          "type": "address"
        }
      ],
      "name": "FundsDonated",
      "type": "event"
    },
    {
      "constant": true,
      "inputs": [],
      "name": "fileCount",
      "outputs": [
        {
          "internalType": "uint256",
          "name": "",
          "type": "uint256"
        }
      ],
      "payable": false,
      "stateMutability": "view",
      "type": "function"
    },
    {
      "constant": true,
      "inputs": [
        {
          "internalType": "uint256",
          "name": "",
          "type": "uint256"
        }
      ],
      "name": "files",
      "outputs": [
        {
          "internalType": "uint256",
          "name": "fileId",
          "type": "uint256"
        },
        {
          "internalType": "string",
          "name": "fileHash",
          "type": "string"
        },
        {
          "internalType": "string",
          "name": "fileType",
          "type": "string"
        },
        {
          "internalType": "string",
          "name": "fileName",
          "type": "string"
        },
        {
          "internalType": "string",
          "name": "fileDescription",
          "type": "string"
        },
        {
          "internalType": "uint256",
          "name": "uploadTime",
          "type": "uint256"
        },
        {
          "internalType": "uint256",
          "name": "funds",
          "type": "uint256"
        },
        {
          "internalType": "uint256",
          "name": "views",
          "type": "uint256"
        },
        {
          "internalType": "uint256",
          "name": "viewPrice",
          "type": "uint256"
        },
        {
          "internalType": "address payable",
          "name": "uploader",
          "type": "address"
        },
        {
          "internalType": "address payable",
          "name": "owner",
          "type": "address"
        }
      ],
      "payable": false,
      "stateMutability": "view",
      "type": "function"
    },
    {
      "constant": true,
      "inputs": [],
      "name": "name",
      "outputs": [
        {
          "internalType": "string",
          "name": "",
          "type": "string"
        }
      ],
      "payable": false,
      "stateMutability": "view",
      "type": "function"
    },
    {
      "constant": false,
      "inputs": [
        {
          "internalType": "uint256",
          "name": "_id",
          "type": "uint256"
        }
      ],
      "name": "fundsDonated",
      "outputs": [],
      "payable": true,
      "stateMutability": "payable",
      "type": "function"
    },
    {
      "constant": false,
      "inputs": [
        {
          "internalType": "uint256",
          "name": "_id",
          "type": "uint256"
        }
      ],
      "name": "viewed",
      "outputs": [],
      "payable": true,
      "stateMutability": "payable",
      "type": "function"
    },
    {
      "constant": false,
      "inputs": [
        {
          "internalType": "uint256",
          "name": "_id",
          "type": "uint256"
        }
      ],
      "name": "reDistribute",
      "outputs": [],
      "payable": true,
      "stateMutability": "payable",
      "type": "function"
    },
    {
      "constant": false,
      "inputs": [
        {
          "internalType": "uint256",
          "name": "_id",
          "type": "uint256"
        }
      ],
      "name": "sold",
      "outputs": [],
      "payable": true,
      "stateMutability": "payable",
      "type": "function"
    },
    {
      "constant": false,
      "inputs": [
        {
          "internalType": "string",
          "name": "_fileHash",
          "type": "string"
        },
        {
          "internalType": "string",
          "name": "_fileType",
          "type": "string"
        },
        {
          "internalType": "string",
          "name": "_fileName",
          "type": "string"
        },
        {
          "internalType": "string",
          "name": "_fileDescription",
          "type": "string"
        }
      ],
      "name": "uploadFile",
      "outputs": [],
      "payable": false,
      "stateMutability": "nonpayable",
      "type": "function"
    }
  ],
  "bytecode": "0x60806040526040518060400160405280600881526020017f4453746f7261676500000000000000000000000000000000000000000000000081525060009080519060200190620000519291906200006b565b5060006001553480156200006457600080fd5b506200011a565b828054600181600116156101000203166002900490600052602060002090601f016020900481019282601f10620000ae57805160ff1916838001178555620000df565b82800160010185558215620000df579182015b82811115620000de578251825591602001919060010190620000c1565b5b509050620000ee9190620000f2565b5090565b6200011791905b8082111562000113576000816000905550600101620000f9565b5090565b90565b6135f9806200012a6000396000f3fe60806040526004361061007b5760003560e01c80639c03facb1161004e5780639c03facb14610197578063c9278dc3146101c5578063f0286d46146101f3578063f4c714b4146104805761007b565b806306fdde03146100805780631dfea9dd14610110578063234fad601461013e578063439535191461016c575b600080fd5b34801561008c57600080fd5b50610095610701565b6040518080602001828103825283818151815260200191508051906020019080838360005b838110156100d55780820151818401526020810190506100ba565b50505050905090810190601f1680156101025780820380516001836020036101000a031916815260200191505b509250505060405180910390f35b61013c6004803603602081101561012657600080fd5b810190808035906020019092919050505061079f565b005b61016a6004803603602081101561015457600080fd5b81019080803590602001909291905050506110e5565b005b34801561017857600080fd5b50610181611a30565b6040518082815260200191505060405180910390f35b6101c3600480360360208110156101ad57600080fd5b8101908080359060200190929190505050611a36565b005b6101f1600480360360208110156101db57600080fd5b81019080803590602001909291905050506122c0565b005b3480156101ff57600080fd5b5061047e6004803603608081101561021657600080fd5b810190808035906020019064010000000081111561023357600080fd5b82018360208201111561024557600080fd5b8035906020019184600183028401116401000000008311171561026757600080fd5b91908080601f016020809104026020016040519081016040528093929190818152602001838380828437600081840152601f19601f820116905080830192505050505050509192919290803590602001906401000000008111156102ca57600080fd5b8201836020820111156102dc57600080fd5b803590602001918460018302840111640100000000831117156102fe57600080fd5b91908080601f016020809104026020016040519081016040528093929190818152602001838380828437600081840152601f19601f8201169050808301925050505050505091929192908035906020019064010000000081111561036157600080fd5b82018360208201111561037357600080fd5b8035906020019184600183028401116401000000008311171561039557600080fd5b91908080601f016020809104026020016040519081016040528093929190818152602001838380828437600081840152601f19601f820116905080830192505050505050509192919290803590602001906401000000008111156103f857600080fd5b82018360208201111561040a57600080fd5b8035906020019184600183028401116401000000008311171561042c57600080fd5b91908080601f016020809104026020016040519081016040528093929190818152602001838380828437600081840152601f19601f820116905080830192505050505050509192919290505050612cd2565b005b34801561048c57600080fd5b506104b9600480360360208110156104a357600080fd5b810190808035906020019092919050505061319f565b604051808c8152602001806020018060200180602001806020018b81526020018a81526020018981526020018881526020018773ffffffffffffffffffffffffffffffffffffffff1673ffffffffffffffffffffffffffffffffffffffff1681526020018673ffffffffffffffffffffffffffffffffffffffff1673ffffffffffffffffffffffffffffffffffffffff16815260200185810385528f818151815260200191508051906020019080838360005b8381101561058757808201518184015260208101905061056c565b50505050905090810190601f1680156105b45780820380516001836020036101000a031916815260200191505b5085810384528e818151815260200191508051906020019080838360005b838110156105ed5780820151818401526020810190506105d2565b50505050905090810190601f16801561061a5780820380516001836020036101000a031916815260200191505b5085810383528d818151815260200191508051906020019080838360005b83811015610653578082015181840152602081019050610638565b50505050905090810190601f1680156106805780820380516001836020036101000a031916815260200191505b5085810382528c818151815260200191508051906020019080838360005b838110156106b957808201518184015260208101905061069e565b50505050905090810190601f1680156106e65780820380516001836020036101000a031916815260200191505b509f5050505050505050505050505050505060405180910390f35b60008054600181600116156101000203166002900480601f0160208091040260200160405190810160405280929190818152602001828054600181600116156101000203166002900480156107975780601f1061076c57610100808354040283529160200191610797565b820191906000526020600020905b81548152906001019060200180831161077a57829003601f168201915b505050505081565b6107a7613499565b600260008381526020019081526020016000206040518061016001604052908160008201548152602001600182018054600181600116156101000203166002900480601f0160208091040260200160405190810160405280929190818152602001828054600181600116156101000203166002900480156108695780601f1061083e57610100808354040283529160200191610869565b820191906000526020600020905b81548152906001019060200180831161084c57829003601f168201915b50505050508152602001600282018054600181600116156101000203166002900480601f01602080910402602001604051908101604052809291908181526020018280546001816001161561010002031660029004801561090b5780601f106108e05761010080835404028352916020019161090b565b820191906000526020600020905b8154815290600101906020018083116108ee57829003601f168201915b50505050508152602001600382018054600181600116156101000203166002900480601f0160208091040260200160405190810160405280929190818152602001828054600181600116156101000203166002900480156109ad5780601f10610982576101008083540402835291602001916109ad565b820191906000526020600020905b81548152906001019060200180831161099057829003601f168201915b50505050508152602001600482018054600181600116156101000203166002900480601f016020809104026020016040519081016040528092919081815260200182805460018160011615610100020316600290048015610a4f5780601f10610a2457610100808354040283529160200191610a4f565b820191906000526020600020905b815481529060010190602001808311610a3257829003601f168201915b50505050508152602001600582015481526020016006820154815260200160078201548152602001600882015481526020016009820160009054906101000a900473ffffffffffffffffffffffffffffffffffffffff1673ffffffffffffffffffffffffffffffffffffffff1673ffffffffffffffffffffffffffffffffffffffff168152602001600a820160009054906101000a900473ffffffffffffffffffffffffffffffffffffffff1673ffffffffffffffffffffffffffffffffffffffff1673ffffffffffffffffffffffffffffffffffffffff168152505090506000816101400151905060008260000151118015610b525750600154826000015111155b610b5b57600080fd5b60003411610b6857600080fd5b3373ffffffffffffffffffffffffffffffffffffffff168173ffffffffffffffffffffffffffffffffffffffff161415610ba157600080fd5b81610120015173ffffffffffffffffffffffffffffffffffffffff1682610140015173ffffffffffffffffffffffffffffffffffffffff1614610c955781610140015173ffffffffffffffffffffffffffffffffffffffff166108fc60646050340281610c0a57fe5b049081150290604051600060405180830381858888f19350505050158015610c36573d6000803e3d6000fd5b5081610120015173ffffffffffffffffffffffffffffffffffffffff166108fc60646014340281610c6357fe5b049081150290604051600060405180830381858888f19350505050158015610c8f573d6000803e3d6000fd5b50610ce2565b81610140015173ffffffffffffffffffffffffffffffffffffffff166108fc349081150290604051600060405180830381858888f19350505050158015610ce0573d6000803e3d6000fd5b505b348260c00151018260c00181815250508160026000858152602001908152602001600020600082015181600001556020820151816001019080519060200190610d2c92919061351f565b506040820151816002019080519060200190610d4992919061351f565b506060820151816003019080519060200190610d6692919061351f565b506080820151816004019080519060200190610d8392919061351f565b5060a0820151816005015560c0820151816006015560e0820151816007015561010082015181600801556101208201518160090160006101000a81548173ffffffffffffffffffffffffffffffffffffffff021916908373ffffffffffffffffffffffffffffffffffffffff16021790555061014082015181600a0160006101000a81548173ffffffffffffffffffffffffffffffffffffffff021916908373ffffffffffffffffffffffffffffffffffffffff1602179055509050507f17a1ea4c6eba1f207ae1fde6fa76cfb87b6c8633619219b8024746e749544ee760015483602001518460400151856060015186608001518760a001518860c001518960e001518a61010001518b61012001518c6101400151604051808c8152602001806020018060200180602001806020018b81526020018a81526020018981526020018881526020018773ffffffffffffffffffffffffffffffffffffffff1673ffffffffffffffffffffffffffffffffffffffff1681526020018673ffffffffffffffffffffffffffffffffffffffff1673ffffffffffffffffffffffffffffffffffffffff16815260200185810385528f818151815260200191508051906020019080838360005b83811015610f67578082015181840152602081019050610f4c565b50505050905090810190601f168015610f945780820380516001836020036101000a031916815260200191505b5085810384528e818151815260200191508051906020019080838360005b83811015610fcd578082015181840152602081019050610fb2565b50505050905090810190601f168015610ffa5780820380516001836020036101000a031916815260200191505b5085810383528d818151815260200191508051906020019080838360005b83811015611033578082015181840152602081019050611018565b50505050905090810190601f1680156110605780820380516001836020036101000a031916815260200191505b5085810382528c818151815260200191508051906020019080838360005b8381101561109957808201518184015260208101905061107e565b50505050905090810190601f1680156110c65780820380516001836020036101000a031916815260200191505b509f5050505050505050505050505050505060405180910390a1505050565b6110ed613499565b600260008381526020019081526020016000206040518061016001604052908160008201548152602001600182018054600181600116156101000203166002900480601f0160208091040260200160405190810160405280929190818152602001828054600181600116156101000203166002900480156111af5780601f10611184576101008083540402835291602001916111af565b820191906000526020600020905b81548152906001019060200180831161119257829003601f168201915b50505050508152602001600282018054600181600116156101000203166002900480601f0160208091040260200160405190810160405280929190818152602001828054600181600116156101000203166002900480156112515780601f1061122657610100808354040283529160200191611251565b820191906000526020600020905b81548152906001019060200180831161123457829003601f168201915b50505050508152602001600382018054600181600116156101000203166002900480601f0160208091040260200160405190810160405280929190818152602001828054600181600116156101000203166002900480156112f35780601f106112c8576101008083540402835291602001916112f3565b820191906000526020600020905b8154815290600101906020018083116112d657829003601f168201915b50505050508152602001600482018054600181600116156101000203166002900480601f0160208091040260200160405190810160405280929190818152602001828054600181600116156101000203166002900480156113955780601f1061136a57610100808354040283529160200191611395565b820191906000526020600020905b81548152906001019060200180831161137857829003601f168201915b50505050508152602001600582015481526020016006820154815260200160078201548152602001600882015481526020016009820160009054906101000a900473ffffffffffffffffffffffffffffffffffffffff1673ffffffffffffffffffffffffffffffffffffffff1673ffffffffffffffffffffffffffffffffffffffff168152602001600a820160009054906101000a900473ffffffffffffffffffffffffffffffffffffffff1673ffffffffffffffffffffffffffffffffffffffff1673ffffffffffffffffffffffffffffffffffffffff1681525050905060008161014001519050600082600001511180156114985750600154826000015111155b6114a157600080fd5b600034116114ae57600080fd5b3373ffffffffffffffffffffffffffffffffffffffff1682610140015173ffffffffffffffffffffffffffffffffffffffff1614156114ec57600080fd5b81610120015173ffffffffffffffffffffffffffffffffffffffff1682610140015173ffffffffffffffffffffffffffffffffffffffff16146115e05781610140015173ffffffffffffffffffffffffffffffffffffffff166108fc6064605034028161155557fe5b049081150290604051600060405180830381858888f19350505050158015611581573d6000803e3d6000fd5b5081610120015173ffffffffffffffffffffffffffffffffffffffff166108fc606460143402816115ae57fe5b049081150290604051600060405180830381858888f193505050501580156115da573d6000803e3d6000fd5b5061162d565b81610140015173ffffffffffffffffffffffffffffffffffffffff166108fc349081150290604051600060405180830381858888f1935050505015801561162b573d6000803e3d6000fd5b505b348260c00151018260c0018181525050816002600085815260200190815260200160002060008201518160000155602082015181600101908051906020019061167792919061351f565b50604082015181600201908051906020019061169492919061351f565b5060608201518160030190805190602001906116b192919061351f565b5060808201518160040190805190602001906116ce92919061351f565b5060a0820151816005015560c0820151816006015560e0820151816007015561010082015181600801556101208201518160090160006101000a81548173ffffffffffffffffffffffffffffffffffffffff021916908373ffffffffffffffffffffffffffffffffffffffff16021790555061014082015181600a0160006101000a81548173ffffffffffffffffffffffffffffffffffffffff021916908373ffffffffffffffffffffffffffffffffffffffff1602179055509050507f17a1ea4c6eba1f207ae1fde6fa76cfb87b6c8633619219b8024746e749544ee760015483602001518460400151856060015186608001518760a001518860c001518960e001518a61010001518b61012001518c6101400151604051808c8152602001806020018060200180602001806020018b81526020018a81526020018981526020018881526020018773ffffffffffffffffffffffffffffffffffffffff1673ffffffffffffffffffffffffffffffffffffffff1681526020018673ffffffffffffffffffffffffffffffffffffffff1673ffffffffffffffffffffffffffffffffffffffff16815260200185810385528f818151815260200191508051906020019080838360005b838110156118b2578082015181840152602081019050611897565b50505050905090810190601f1680156118df5780820380516001836020036101000a031916815260200191505b5085810384528e818151815260200191508051906020019080838360005b838110156119185780820151818401526020810190506118fd565b50505050905090810190601f1680156119455780820380516001836020036101000a031916815260200191505b5085810383528d818151815260200191508051906020019080838360005b8381101561197e578082015181840152602081019050611963565b50505050905090810190601f1680156119ab5780820380516001836020036101000a031916815260200191505b5085810382528c818151815260200191508051906020019080838360005b838110156119e45780820151818401526020810190506119c9565b50505050905090810190601f168015611a115780820380516001836020036101000a031916815260200191505b509f5050505050505050505050505050505060405180910390a1505050565b60015481565b611a3e613499565b600260008381526020019081526020016000206040518061016001604052908160008201548152602001600182018054600181600116156101000203166002900480601f016020809104026020016040519081016040528092919081815260200182805460018160011615610100020316600290048015611b005780601f10611ad557610100808354040283529160200191611b00565b820191906000526020600020905b815481529060010190602001808311611ae357829003601f168201915b50505050508152602001600282018054600181600116156101000203166002900480601f016020809104026020016040519081016040528092919081815260200182805460018160011615610100020316600290048015611ba25780601f10611b7757610100808354040283529160200191611ba2565b820191906000526020600020905b815481529060010190602001808311611b8557829003601f168201915b50505050508152602001600382018054600181600116156101000203166002900480601f016020809104026020016040519081016040528092919081815260200182805460018160011615610100020316600290048015611c445780601f10611c1957610100808354040283529160200191611c44565b820191906000526020600020905b815481529060010190602001808311611c2757829003601f168201915b50505050508152602001600482018054600181600116156101000203166002900480601f016020809104026020016040519081016040528092919081815260200182805460018160011615610100020316600290048015611ce65780601f10611cbb57610100808354040283529160200191611ce6565b820191906000526020600020905b815481529060010190602001808311611cc957829003601f168201915b50505050508152602001600582015481526020016006820154815260200160078201548152602001600882015481526020016009820160009054906101000a900473ffffffffffffffffffffffffffffffffffffffff1673ffffffffffffffffffffffffffffffffffffffff1673ffffffffffffffffffffffffffffffffffffffff168152602001600a820160009054906101000a900473ffffffffffffffffffffffffffffffffffffffff1673ffffffffffffffffffffffffffffffffffffffff1673ffffffffffffffffffffffffffffffffffffffff168152505090506000816101400151905060008260000151118015611de95750600154826000015111155b611df257600080fd5b60003411611dff57600080fd5b3373ffffffffffffffffffffffffffffffffffffffff168173ffffffffffffffffffffffffffffffffffffffff161415611e3857600080fd5b81610140015173ffffffffffffffffffffffffffffffffffffffff166108fc349081150290604051600060405180830381858888f19350505050158015611e83573d6000803e3d6000fd5b503382610140019073ffffffffffffffffffffffffffffffffffffffff16908173ffffffffffffffffffffffffffffffffffffffff1681525050348260c00151018260c00181815250508160026000858152602001908152602001600020600082015181600001556020820151816001019080519060200190611f0792919061351f565b506040820151816002019080519060200190611f2492919061351f565b506060820151816003019080519060200190611f4192919061351f565b506080820151816004019080519060200190611f5e92919061351f565b5060a0820151816005015560c0820151816006015560e0820151816007015561010082015181600801556101208201518160090160006101000a81548173ffffffffffffffffffffffffffffffffffffffff021916908373ffffffffffffffffffffffffffffffffffffffff16021790555061014082015181600a0160006101000a81548173ffffffffffffffffffffffffffffffffffffffff021916908373ffffffffffffffffffffffffffffffffffffffff1602179055509050507f17a1ea4c6eba1f207ae1fde6fa76cfb87b6c8633619219b8024746e749544ee760015483602001518460400151856060015186608001518760a001518860c001518960e001518a61010001518b61012001518c6101400151604051808c8152602001806020018060200180602001806020018b81526020018a81526020018981526020018881526020018773ffffffffffffffffffffffffffffffffffffffff1673ffffffffffffffffffffffffffffffffffffffff1681526020018673ffffffffffffffffffffffffffffffffffffffff1673ffffffffffffffffffffffffffffffffffffffff16815260200185810385528f818151815260200191508051906020019080838360005b83811015612142578082015181840152602081019050612127565b50505050905090810190601f16801561216f5780820380516001836020036101000a031916815260200191505b5085810384528e818151815260200191508051906020019080838360005b838110156121a857808201518184015260208101905061218d565b50505050905090810190601f1680156121d55780820380516001836020036101000a031916815260200191505b5085810383528d818151815260200191508051906020019080838360005b8381101561220e5780820151818401526020810190506121f3565b50505050905090810190601f16801561223b5780820380516001836020036101000a031916815260200191505b5085810382528c818151815260200191508051906020019080838360005b83811015612274578082015181840152602081019050612259565b50505050905090810190601f1680156122a15780820380516001836020036101000a031916815260200191505b509f5050505050505050505050505050505060405180910390a1505050565b6122c8613499565b600260008381526020019081526020016000206040518061016001604052908160008201548152602001600182018054600181600116156101000203166002900480601f01602080910402602001604051908101604052809291908181526020018280546001816001161561010002031660029004801561238a5780601f1061235f5761010080835404028352916020019161238a565b820191906000526020600020905b81548152906001019060200180831161236d57829003601f168201915b50505050508152602001600282018054600181600116156101000203166002900480601f01602080910402602001604051908101604052809291908181526020018280546001816001161561010002031660029004801561242c5780601f106124015761010080835404028352916020019161242c565b820191906000526020600020905b81548152906001019060200180831161240f57829003601f168201915b50505050508152602001600382018054600181600116156101000203166002900480601f0160208091040260200160405190810160405280929190818152602001828054600181600116156101000203166002900480156124ce5780601f106124a3576101008083540402835291602001916124ce565b820191906000526020600020905b8154815290600101906020018083116124b157829003601f168201915b50505050508152602001600482018054600181600116156101000203166002900480601f0160208091040260200160405190810160405280929190818152602001828054600181600116156101000203166002900480156125705780601f1061254557610100808354040283529160200191612570565b820191906000526020600020905b81548152906001019060200180831161255357829003601f168201915b50505050508152602001600582015481526020016006820154815260200160078201548152602001600882015481526020016009820160009054906101000a900473ffffffffffffffffffffffffffffffffffffffff1673ffffffffffffffffffffffffffffffffffffffff1673ffffffffffffffffffffffffffffffffffffffff168152602001600a820160009054906101000a900473ffffffffffffffffffffffffffffffffffffffff1673ffffffffffffffffffffffffffffffffffffffff1673ffffffffffffffffffffffffffffffffffffffff1681525050905060008161014001519050600082600001511180156126735750600154826000015111155b61267c57600080fd5b6000341161268957600080fd5b3373ffffffffffffffffffffffffffffffffffffffff168173ffffffffffffffffffffffffffffffffffffffff1614156126c257600080fd5b8160e00180518091906001018152505060148260e0015110156126f057600a8261010001818152505061278e565b60148260e0015110158015612709575060648260e00151105b1561271f5760148261010001818152505061278d565b60648260e0015110158015612738575060fa8260e00151105b1561274e57601e8261010001818152505061278c565b60fa8260e001511015801561276857506101f48260e00151105b1561277e5760288261010001818152505061278b565b6032826101000181815250505b5b5b5b81610120015173ffffffffffffffffffffffffffffffffffffffff1682610140015173ffffffffffffffffffffffffffffffffffffffff16146128825781610140015173ffffffffffffffffffffffffffffffffffffffff166108fc606460503402816127f757fe5b049081150290604051600060405180830381858888f19350505050158015612823573d6000803e3d6000fd5b5081610120015173ffffffffffffffffffffffffffffffffffffffff166108fc6064601434028161285057fe5b049081150290604051600060405180830381858888f1935050505015801561287c573d6000803e3d6000fd5b506128cf565b81610140015173ffffffffffffffffffffffffffffffffffffffff166108fc349081150290604051600060405180830381858888f193505050501580156128cd573d6000803e3d6000fd5b505b348260c00151018260c0018181525050816002600085815260200190815260200160002060008201518160000155602082015181600101908051906020019061291992919061351f565b50604082015181600201908051906020019061293692919061351f565b50606082015181600301908051906020019061295392919061351f565b50608082015181600401908051906020019061297092919061351f565b5060a0820151816005015560c0820151816006015560e0820151816007015561010082015181600801556101208201518160090160006101000a81548173ffffffffffffffffffffffffffffffffffffffff021916908373ffffffffffffffffffffffffffffffffffffffff16021790555061014082015181600a0160006101000a81548173ffffffffffffffffffffffffffffffffffffffff021916908373ffffffffffffffffffffffffffffffffffffffff1602179055509050507f17a1ea4c6eba1f207ae1fde6fa76cfb87b6c8633619219b8024746e749544ee760015483602001518460400151856060015186608001518760a001518860c001518960e001518a61010001518b61012001518c6101400151604051808c8152602001806020018060200180602001806020018b81526020018a81526020018981526020018881526020018773ffffffffffffffffffffffffffffffffffffffff1673ffffffffffffffffffffffffffffffffffffffff1681526020018673ffffffffffffffffffffffffffffffffffffffff1673ffffffffffffffffffffffffffffffffffffffff16815260200185810385528f818151815260200191508051906020019080838360005b83811015612b54578082015181840152602081019050612b39565b50505050905090810190601f168015612b815780820380516001836020036101000a031916815260200191505b5085810384528e818151815260200191508051906020019080838360005b83811015612bba578082015181840152602081019050612b9f565b50505050905090810190601f168015612be75780820380516001836020036101000a031916815260200191505b5085810383528d818151815260200191508051906020019080838360005b83811015612c20578082015181840152602081019050612c05565b50505050905090810190601f168015612c4d5780820380516001836020036101000a031916815260200191505b5085810382528c818151815260200191508051906020019080838360005b83811015612c86578082015181840152602081019050612c6b565b50505050905090810190601f168015612cb35780820380516001836020036101000a031916815260200191505b509f5050505050505050505050505050505060405180910390a1505050565b6000845111612ce057600080fd5b6000835111612cee57600080fd5b6000815111612cfc57600080fd5b6000825111612d0a57600080fd5b600073ffffffffffffffffffffffffffffffffffffffff163373ffffffffffffffffffffffffffffffffffffffff161415612d4457600080fd5b60016000815480929190600101919050555060405180610160016040528060015481526020018581526020018481526020018381526020018281526020014281526020016000815260200160008152602001600a81526020013373ffffffffffffffffffffffffffffffffffffffff1681526020013373ffffffffffffffffffffffffffffffffffffffff16815250600260006001548152602001908152602001600020600082015181600001556020820151816001019080519060200190612e0e92919061351f565b506040820151816002019080519060200190612e2b92919061351f565b506060820151816003019080519060200190612e4892919061351f565b506080820151816004019080519060200190612e6592919061351f565b5060a0820151816005015560c0820151816006015560e0820151816007015561010082015181600801556101208201518160090160006101000a81548173ffffffffffffffffffffffffffffffffffffffff021916908373ffffffffffffffffffffffffffffffffffffffff16021790555061014082015181600a0160006101000a81548173ffffffffffffffffffffffffffffffffffffffff021916908373ffffffffffffffffffffffffffffffffffffffff1602179055509050507ff24728a3bd014b15353532b0ac21b371d603e7cfdb56eedd22459413b58e04866001548585858542600080600a3333604051808c8152602001806020018060200180602001806020018b81526020018a81526020018981526020018881526020018773ffffffffffffffffffffffffffffffffffffffff1673ffffffffffffffffffffffffffffffffffffffff1681526020018673ffffffffffffffffffffffffffffffffffffffff1673ffffffffffffffffffffffffffffffffffffffff16815260200185810385528f818151815260200191508051906020019080838360005b83811015613020578082015181840152602081019050613005565b50505050905090810190601f16801561304d5780820380516001836020036101000a031916815260200191505b5085810384528e818151815260200191508051906020019080838360005b8381101561308657808201518184015260208101905061306b565b50505050905090810190601f1680156130b35780820380516001836020036101000a031916815260200191505b5085810383528d818151815260200191508051906020019080838360005b838110156130ec5780820151818401526020810190506130d1565b50505050905090810190601f1680156131195780820380516001836020036101000a031916815260200191505b5085810382528c818151815260200191508051906020019080838360005b83811015613152578082015181840152602081019050613137565b50505050905090810190601f16801561317f5780820380516001836020036101000a031916815260200191505b509f5050505050505050505050505050505060405180910390a150505050565b6002602052806000526040600020600091509050806000015490806001018054600181600116156101000203166002900480601f0160208091040260200160405190810160405280929190818152602001828054600181600116156101000203166002900480156132515780601f1061322657610100808354040283529160200191613251565b820191906000526020600020905b81548152906001019060200180831161323457829003601f168201915b505050505090806002018054600181600116156101000203166002900480601f0160208091040260200160405190810160405280929190818152602001828054600181600116156101000203166002900480156132ef5780601f106132c4576101008083540402835291602001916132ef565b820191906000526020600020905b8154815290600101906020018083116132d257829003601f168201915b505050505090806003018054600181600116156101000203166002900480601f01602080910402602001604051908101604052809291908181526020018280546001816001161561010002031660029004801561338d5780601f106133625761010080835404028352916020019161338d565b820191906000526020600020905b81548152906001019060200180831161337057829003601f168201915b505050505090806004018054600181600116156101000203166002900480601f01602080910402602001604051908101604052809291908181526020018280546001816001161561010002031660029004801561342b5780601f106134005761010080835404028352916020019161342b565b820191906000526020600020905b81548152906001019060200180831161340e57829003601f168201915b5050505050908060050154908060060154908060070154908060080154908060090160009054906101000a900473ffffffffffffffffffffffffffffffffffffffff169080600a0160009054906101000a900473ffffffffffffffffffffffffffffffffffffffff1690508b565b604051806101600160405280600081526020016060815260200160608152602001606081526020016060815260200160008152602001600081526020016000815260200160008152602001600073ffffffffffffffffffffffffffffffffffffffff168152602001600073ffffffffffffffffffffffffffffffffffffffff1681525090565b828054600181600116156101000203166002900490600052602060002090601f016020900481019282601f1061356057805160ff191683800117855561358e565b8280016001018555821561358e579182015b8281111561358d578251825591602001919060010190613572565b5b50905061359b919061359f565b5090565b6135c191905b808211156135bd5760008160009055506001016135a5565b5090565b9056fea265627a7a72315820d4801a64f63f93f3b260ef34738e0d16556a43a77b0c99239fca03032176e0ae64736f6c63430005100032",
  "source": "pragma solidity ^0.5.0;\r\n\r\ncontract DStorage {\r\n  string public name = \"DStorage\";\r\n  uint public fileCount = 0;\r\n  mapping(uint=> File) public files;\r\n\r\n\r\n  // Struct\r\n  struct File {\r\n    uint fileId;\r\n    string fileHash;\r\n    string fileType;\r\n    string fileName;\r\n    string fileDescription;\r\n    uint uploadTime;\r\n    uint funds;\r\n    uint views;\r\n    uint viewPrice;\r\n    address payable uploader;\r\n    address payable owner;\r\n\r\n  }\r\n\r\n\r\n  // Event\r\n  event FileUploaded(\r\n    uint fileId,\r\n    string fileHash,\r\n    string fileType,\r\n    string fileName, \r\n    string fileDescription,\r\n    uint uploadTime,\r\n    uint funds,\r\n    uint views,\r\n    uint viewPrice,\r\n    address payable uploader,\r\n    address payable owner\r\n  );\r\n\r\n  event FundsDonated(\r\n    uint fileId,\r\n    string fileHash,\r\n    string fileType,\r\n    string fileName, \r\n    string fileDescription,\r\n    uint uploadTime,\r\n    uint funds,\r\n    uint views,\r\n    uint viewPrice,\r\n    address payable uploader,\r\n    address payable owner\r\n  );\r\n\r\n  constructor() public {\r\n  }\r\n\r\n  function fundsDonated(uint _id) public payable {\r\n    File memory _file = files[_id];\r\n\r\n\r\n    address payable _creator = _file.owner;\r\n\r\n        //Make sure the product has a valid id\r\n        require(_file.fileId > 0 && _file.fileId <= fileCount);\r\n        //Require there is enough ether in the transaction\r\n        require(msg.value > 0);\r\n        require(_file.owner != msg.sender);\r\n\r\n        //Pay the seller by sending them ether\r\n        if(_file.owner!=_file.uploader)\r\n        {\r\n          address(_file.owner).transfer(msg.value*80/100);\r\n          address(_file.uploader).transfer(msg.value*20/100);\r\n        }\r\n        else\r\n        {\r\n          address(_file.owner).transfer(msg.value);\r\n        }\r\n        \r\n        _file.funds = _file.funds + (msg.value);\r\n\r\n        //Update the Product\r\n        files[_id] = _file;\r\n\r\n        //Trigger an event\r\n        emit FundsDonated(fileCount,_file.fileHash,_file.fileType,_file.fileName,_file.fileDescription,_file.uploadTime,_file.funds,_file.views,_file.viewPrice, _file.uploader,_file.owner);\r\n\r\n  }\r\n\r\n  function viewed(uint _id) public payable {\r\n    File memory _file = files[_id];\r\n\r\n\r\n    address payable _creator = _file.owner;\r\n\r\n        //Make sure the product has a valid id\r\n        require(_file.fileId > 0 && _file.fileId <= fileCount);\r\n        //Require there is enough ether in the transaction\r\n        require(msg.value > 0);\r\n        require(_creator != msg.sender);\r\n\r\n        _file.views++;\r\n        if(_file.views<20)\r\n        {\r\n          _file.viewPrice = 10;\r\n        }\r\n        else if(_file.views>=20 && _file.views<100)\r\n        {\r\n          _file.viewPrice = 20;\r\n        }\r\n        else if(_file.views>=100 && _file.views<250)\r\n        {\r\n          _file.viewPrice = 30;\r\n        }\r\n        else if(_file.views>=250 && _file.views<500)\r\n        {\r\n          _file.viewPrice = 40;\r\n        }\r\n        else\r\n        {\r\n           _file.viewPrice = 50;\r\n        }\r\n\r\n\r\n        //Pay the seller by sending them ether\r\n        if(_file.owner!=_file.uploader)\r\n        {\r\n          address(_file.owner).transfer(msg.value*80/100);\r\n          address(_file.uploader).transfer(msg.value*20/100);\r\n        }\r\n        else\r\n        {\r\n          address(_file.owner).transfer(msg.value);\r\n        }\r\n        _file.funds = _file.funds + (msg.value);\r\n\r\n        //Update the Product\r\n        files[_id] = _file;\r\n\r\n        //Trigger an event\r\n        emit FundsDonated(fileCount,_file.fileHash,_file.fileType,_file.fileName,_file.fileDescription,_file.uploadTime,_file.funds,_file.views,_file.viewPrice, _file.uploader,_file.owner);\r\n\r\n  }\r\n\r\n  function reDistribute(uint _id) public payable {\r\n    File memory _file = files[_id];\r\n\r\n    address payable _creator = _file.owner;\r\n\r\n        //Make sure the product has a valid id\r\n        require(_file.fileId > 0 && _file.fileId <= fileCount);\r\n        //Require there is enough ether in the transaction\r\n        require(msg.value > 0);\r\n        require(_creator != msg.sender);\r\n\r\n\r\n        //Pay the seller by sending them ether\r\n        if(_file.owner!=_file.uploader)\r\n        {\r\n          address(_file.owner).transfer(msg.value*80/100);\r\n          address(_file.uploader).transfer(msg.value*20/100);\r\n        }\r\n        else\r\n        {\r\n          address(_file.owner).transfer(msg.value);\r\n        }\r\n        \r\n        _file.funds = _file.funds + (msg.value);\r\n\r\n        //Update the Product\r\n        files[_id] = _file;\r\n\r\n        //Trigger an event\r\n        emit FundsDonated(fileCount,_file.fileHash,_file.fileType,_file.fileName,_file.fileDescription,_file.uploadTime,_file.funds,_file.views,_file.viewPrice, _file.uploader,_file.owner);\r\n\r\n  }\r\n\r\n\r\nfunction sold(uint _id) public payable {\r\n    File memory _file = files[_id];\r\n\r\n    address payable _creator = _file.owner;\r\n\r\n        //Make sure the product has a valid id\r\n        require(_file.fileId > 0 && _file.fileId <= fileCount);\r\n        //Require there is enough ether in the transaction\r\n        require(msg.value > 0);\r\n        require(_creator != msg.sender);\r\n\r\n\r\n        //Pay the seller by sending them ether\r\n        address(_file.owner).transfer(msg.value);\r\n        _file.owner = msg.sender;\r\n        \r\n        _file.funds = _file.funds + (msg.value);\r\n\r\n        //Update the Product\r\n        files[_id] = _file;\r\n\r\n        //Trigger an event\r\n        emit FundsDonated(fileCount,_file.fileHash,_file.fileType,_file.fileName,_file.fileDescription,_file.uploadTime,_file.funds,_file.views,_file.viewPrice, _file.uploader,_file.owner);\r\n\r\n  }\r\n\r\n\r\n// Upload File function\r\nfunction uploadFile(string memory _fileHash, string memory _fileType, string memory _fileName, string memory _fileDescription) public {\r\n    // Make sure the file hash exists\r\n    require(bytes(_fileHash).length > 0);\r\n    // Make sure file type exists\r\n    require(bytes(_fileType).length > 0);\r\n    // Make sure file description exists\r\n    require(bytes(_fileDescription).length > 0);\r\n    // Make sure file fileName exists\r\n    require(bytes(_fileName).length > 0);\r\n    // Make sure uploader address exists\r\n    require(msg.sender!=address(0));\r\n    // Make sure file size is more than 0\r\n\r\n    // Increment file id\r\n    fileCount ++;\r\n\r\n    // Add File to the contract\r\n    files[fileCount] = File(fileCount, _fileHash,_fileType, _fileName, _fileDescription, now,0,0,10, msg.sender, msg.sender);\r\n    // Trigger an event\r\n    emit FileUploaded(fileCount, _fileHash, _fileType, _fileName, _fileDescription, now,0,0,10, msg.sender,msg.sender);\r\n  }\r\n  \r\n}",
  "sourcePath": "E:/Projects/drm1/src/contracts/DStorage.sol",
  "compiler": {
    "name": "solc",
    "version": "0.5.16+commit.9c3226ce.Emscripten.clang"
  },
  "schemaVersion": "3.4.1",
  "updatedAt": "2022-03-10T02:42:31.751Z",
  "networkType": "ethereum",
  "devdoc": {
    "methods": {}
  },
  "userdoc": {
    "methods": {}
  }
}